:1000000000308A001828000025308400831300087F
:10001000031917280630F800F701F70B0D28F80B25
:100020000C287B30F700F70B1328800B0A280800F8
:10003000FF30A00083161F149F141F159F11073057
:100040009C0083131F30830501308500003086003B
:100050000912F030831297059D0590010030F800D9
:1000600092000030831692001F149F141F159F11D9
:1000700083121F10A1010130A200A3012308073C35
:10008000031C50280030A000831687018312220829
:1000900087000310A20D6430A5000420A30A3E28A7
:1000A0008030A2000030A00083168701831222084E
:1000B00087006430A5000420A4012408073C031C29
:1000C0006F280030A0008316870183122208870062
:1000D0000310A20C6430A5000420A40A5D283B286C
:0200E0006300BB
:02400E00323F3F
:00000001FF
;PIC16F877A
;CRC=8812  CREATED="23-Þub-19 12:11"
