:1000000000308A003B2800000A108A100A1182077B
:100010000034013402340334043405340634073424
:100020000834093424308400831300080319252878
:100030000630F800F701F70B1B28F80B1A287B3065
:10004000F700F70B2128800B182808002508F80175
:10005000240203182E282408F7003A28F701083054
:10006000A600A40DF70D250877020318F700F80D78
:10007000A60B31280800FF30A00083161F149F1420
:100080001F159F1183131F30830503308500003037
:1000900086000912F030831297059D05900100300B
:1000A000F80092000030831692001F149F141F1551
:1000B0009F1183121F10A101A201A301201020088B
:1000C0008316870083120714831608108312081002
:1000D00022080420A40083168601831224088600C7
:1000E0000730A400122020102008831687008312F6
:1000F0000710831608108312081423080420A40094
:10010000831686018312240886000730A40012207B
:100110008316051483120518CB28A10A2108A40010
:100120000A30A50026207708A2002108A4000A3082
:10013000A50026207808A300831605148312051C49
:100140009C2820102008831687008312071483162A
:1001500008108312081022080420A40083168601C8
:100160008312240886000730A400122020102008E3
:100170008316870083120710831608108312081451
:1001800023080420A4008316860183122408860015
:100190000730A40012208316851400308312851CBA
:1001A0000130A500A108031DD7280030D828013050
:1001B000250503191A29A1032108A4000A30A50066
:1001C00026207708A2002108A4000A30A5002620D6
:1001D0007808A30083168514831285181A29201025
:1001E00020088316870083120714831608108312D1
:1001F000081022080420A400831686018312240814
:1002000086000730A40012202010200883168700E3
:100210008312071083160810831208142308042081
:10022000A400831686018312240886000730A400E8
:100230001220EA282108643C0319A1015E2863000A
:02400E00323F3F
:00000001FF
;PIC16F877
;CRC=709C  CREATED="22-Eyl-19 16:25"
