:1000000000308A003B2800000A108A100A1182077B
:100010003F3406345B344F3466346D347C340734FB
:100020007F346F342430840083130008031925289B
:100030000230F800F701F70B1B28F80B1A2897304D
:10004000F700F70B2128800B182808002708F80173
:10005000260203182E282608F7003A28F701083050
:10006000A800A60DF70D270877020318F700F80D72
:10007000A80B31280800FF30A00083161F149F141E
:100080001F159F1107309C0083131F30830500301C
:10009000860087008312A00083160912F0308312B5
:1000A00097059D0590010030F800920000308316FE
:1000B00092001F149F141F159F1183121F10831687
:1000C000860183128601A0008316870183128701AF
:1000D000A101A201A3018316051483120518BD28EE
:1000E0000A30A4001220A30A2308A6000A30A700A1
:1000F00026207708A10021082302A500A6000A30C7
:10010000A70026207808A200831605148312051C78
:100110008428831605148312051CBD28201020088E
:1001200083168700831207148316081083120810A1
:1001300021080420A4008316860183122408860067
:100140000F30A4001220201020088316870083128D
:100150000710831608108312081422080420A40034
:10016000831686018312240886000F30A400122013
:0E0170002308643C0319A30189286B2863004F
:02400E00323F3F
:00000001FF
;PIC16F877A
;CRC=66C7  CREATED="22-Eyl-19 16:02"
