:1000000000308A0004280000FF30A00083161F146F
:100010009F141F159F1107309C0083131F30830509
:1000200001308500003087008312A0009001F800A5
:10003000920000308316920009121F149F141F159E
:100040009F1183121F10F03097059D05073083160E
:100050009C00050885001030F700F70B2D280000E4
:100060001C0883120D1383169D01860183128601DD
:100070000130A100831605148312051C4A2883163B
:100080000514831205183F28831686018312210860
:080090008600A10A3A28630072
:02400E00323F3F
:00000001FF
;PIC16F877A
;CRC=7DF2  CREATED="22-Eyl-19 19:12"
