:1000000000308A00642800004E08FB3E03181D28BB
:10001000053E20281030F8001D281D280830F80063
:100020001D281D280430F8001D281D280230F80066
:100030001D281D280130F8001D288A110A124A289F
:100040000A108A100A1182070A280E281228162878
:100050001A284E3084008313000803193C2802300C
:10006000F800F701F70B3228F80B31289730F7002A
:10007000F70B3828800B2F280800CC014C084B02C6
:10008000031C6328CD014D08053C031C61284D0865
:10009000CE000428831686018312780886004D0856
:1000A0004907840083134A1883170008CE0083167B
:1000B000880183124E0888000530CE002920CD0A21
:1000C0004328CC0A3E28080083161F149F141F15CE
:1000D0009F1107309C0083131F3083050330831268
:1000E000A1007530A2007630A3007530A400033063
:1000F000A500A6013630A700A800A9004930AA0033
:100100004130AB003E30AC00AD00AE005D30AF0022
:10011000B0013E30B100B200B3004130B400B501CF
:10012000B630B600B700B800BE30B9007730BA00BC
:10013000BB004130BC007730BD00BE005D30BF0069
:100140006B30C0007730C1006B30C2005D30C3003F
:100150006B30C4005D30C500C601C7006B30C800FD
:1001600083160912F030831297059D059001003027
:10017000F80092000030831692001F149F141F1580
:100180009F1183121F108316860088008312CA01F4
:100190002130C9001930CB003D206430CE00292029
:1001A000CA012630C9001930CB003D206430CE0092
:1001B0002920CA012B30C9001930CB003D20643002
:1001C000CE002920CA013030C9001930CB003D20B3
:1001D0006430CE002920CA013530C9001930CB0067
:1001E0003D206430CE002920CA013A30C9001930C0
:1001F000CB003D206430CE002920CA013F30C90029
:100200001930CB003D206430CE002920CA01443093
:10021000C9001930CB003D206430CE002920C7280A
:02022000630079
:02400E00323F3F
:00000001FF
;PIC16F877A
;CRC=D034  CREATED="26-Eyl-19 12:23"
