:1000000003308A000A2B00000A108A100A118207A6
:1000100028340C34013406340C21E1396936613757
:10002000203AF5393D002A30840083130008031973
:1000300026280230F800F701F70B1C28F80B1B28C4
:100040009730F700F70B2228800B19280800311889
:100050002B2886112C288615831686118312B11839
:100060003328061234280616831606128312311915
:100070003B2886123C288616831686128312B119F5
:10008000432806134428061783160613000083121C
:100090000615831606114C284D2883120611831667
:1000A000061183120800B2018316861500308312F0
:1000B00086190130B2048316061600308312061A20
:1000C0000130F7000310F70D7708B2048316861687
:1000D00000308312861A0130F700F70DF70DFC305F
:1000E000F7057708B2048316061700308312061B43
:1000F0000130F700F70DF70DF70DF830F705770829
:10010000B2043208F80008008316061106108610A3
:100110008312061083160610861506168616061715
:100120008312861483168610000083120615831628
:1001300006110000831253207808B10006118316BF
:10014000061100008312061583160611A7288312D4
:1001500053207808B0000611831606118611061286
:10016000861206138312310EF700F030F705770878
:100170003004F8007808B000B01FC02883168C281F
:10018000AE08031DC5280610C628061483160610DF
:100190000000831286108316861000008312061159
:1001A0008316061183122F0EB0000F30B0053008F1
:1001B000B10027202F080F39B000B1002720080018
:1001C0008316861106128612061306110610861073
:1001D000831206108316061083128610831686106B
:1001E00083120611831606110F308312AA00132002
:1001F0000130A2002208033C031C06290330B10091
:1002000027200530AA001320A20AFA280230B100E4
:1002100027200530AA001320A2012208033C031C5A
:100220001A2922080420A300AE012308AF0084206D
:10023000A20A0D298A110A12492B2B0B20292329E6
:100240004030AC002429AC0101302A02AC072C0854
:100250008038AD00AE012D08AF00842008002908C9
:10026000073A03193D290B3A03194229063A0319A3
:100270004A29023A0319502955290130AA00AB0036
:100280001D215A29AE010130AF0084200230AA009E
:1002900013205A290130AA000230AB001D215A292F
:1002A000AE011030AF0084205A290130AE00290879
:1002B000AF00842008000B08A2008B1383160317DD
:1002C0008C170C140000000083120C087F390319EE
:1002D000A2290313A30003170D080313A400031797
:1002E0000F080313A5002308A9002F2124080317D2
:1002F0008D000313250803178F0083168C170C1429
:100300000000000083120C0D0E0D7F390319A22985
:100310000313A30003170D080313A40003170F080A
:100320000313A5002308A9002F21240803178D001B
:100330000313250803178F008D0A03198F0A03136F
:100340005E2903170313A21B8B178A110A12502B65
:1003500083168801831288012112210883168700E1
:100360008312071621142108831687008312071CA5
:10037000BE291430AA0013200130A000A1142108C6
:10038000831687008312871CCA291430AA00132001
:100390000230A00021152108831687008312071D53
:1003A000D6291430AA0013200330A000A11521087B
:1003B000831687008312871DE2291430AA001320B8
:1003C0000A30A00021122108831687008312071229
:1003D000A112210883168700831287162114210891
:1003E000831687008312071CFA291430AA001320F1
:1003F0000430A000A1142108831687008312871CF3
:10040000062A1430AA0013200530A0002115210867
:10041000831687008312071D122A1430AA001320A6
:100420000630A000A1152108831687008312871DBE
:100430001E2A1430AA0013200B30A000A11221089C
:1004400083168700831287122113210883168700E1
:100450008312071721142108831687008312071CB3
:10046000362A1430AA0013200730A000A114210856
:10047000831687008312871C422A1430AA00132097
:100480000830A00021152108831687008312071D5C
:100490004E2A1430AA0013200930A000A11521080B
:1004A000831687008312871D5A2A1430AA0013204E
:1004B0000C30A00021132108831687008312071334
:1004C000A11321088316870083128717211421089E
:1004D000831687008312071C722A1430AA00132087
:1004E0000E30A000A1142108831687008312871CF8
:1004F0007D2A1430AA001320A0012115210883169B
:1005000087008312071D892A1430AA0013200F3098
:10051000A000A1152108831687008312871D952A44
:100520001430AA0013200D30A000A1132108831657
:100530008700831287132008F80008002A08F801B2
:1005400029020318A62A2908F700B22AF701083061
:10055000AB00A90DF70D2A0877020318F700F80D74
:10056000AB0BA92A08002030241E3030A500230838
:10057000F700A31FC32AF709F70A7708A3002D3055
:10058000A500A41724142308A9006430AA009E2201
:100590007708A30030307807A6002308A9000A30A6
:1005A000AA009E2230307707A80030307807A700D5
:1005B0002508F700303026020319E22AA414A41BF0
:1005C0002415F62A2508A6002030A5003030270281
:1005D0000319EE2A2414A41BA414F62A031D2414C0
:1005E000031DF62A2608A7002030A6002419FD2A9C
:1005F000A418002B2418032B062B2508A9002F2153
:100600002608A9002F212708A9002F212808A900C2
:100610002F210800A001FF30A10083161F149F1492
:100620001F159F1107309C0083131F30830509128B
:10063000831290010030F80092000030831692007F
:100640001F149F141F159F1183121F10F030970560
:100650009D05073083169C00050885000630F700CD
:10066000F70B302B00001C0883120D1383169D011D
:1006700000308600FF3087008312A10083168601B8
:10068000831286010030A10083168701831287013F
:10069000E0280C3003178D0000308F0003135B2916
:1006A0000D30AA000130AB001D21A8217808093CBB
:1006B0000318622BA8217808A200A3001830A40018
:1006C000B3226C2BA8217808A200A3001830A40044
:0C06D000B3222030A9002F21502B630022
:02400E00323F3F
:00000001FF
;PIC16F877A
;CRC=48BB  CREATED="26-Eyl-19 12:15"
