:1000000001308A00222900000A108A100A11820792
:1000100028340C34013406340A108A100A1182077D
:100020006E347534723475346C346C3461346834C5
:1000300000340A108A100A1182070A34093409347C
:10004000093473346134683469346E3400340A100E
:100050008A100A11820748344F345334203447340D
:1000600045344C34443449344E3449345A340034E1
:10007000243084008313000803194B280230F80051
:10008000F701F70B4128F80B40289730F700F70BE2
:100090004728800B3E2808002C0EF039F7000F305F
:1000A0000605770486000000061456285728061017
:1000B00008000608F700060E0F39F80008000F3098
:1000C00083160605F0388600831206150000061414
:1000D000000059207808AC000610000006147028B3
:1000E00059207808AB0006100F30831606058600ED
:1000F00083122C0EF700F030F70577082B04F80078
:1001000008008316061086100611831286105F20E1
:100110007808AB00AB1B8728291C86102918861489
:1001200000000611000006102A0EAB000F30AB05D0
:100130002B08AC004C202A080F39AB00AC004C2037
:1001400008000F308316060586000610861006117B
:1001500083128610061106100F30A40038200130DB
:10016000A2002208033C031CBD280330AC004C2035
:100170000530A4003820A20AB1280230AC004C207F
:100180000530A4003820A2012208033C031CD1281A
:1001900022080420A300A9012308AA008120A20AA2
:1001A000C4282829260BD528D8284030A700D928CC
:1001B000A70101302502A70727088038A800A90158
:1001C0002808AA00812008002308073A0319F2280A
:1001D0000B3A0319F728063A0319FF28023A0319C4
:1001E00005290A290130A500A600D2200F29A9015E
:1001F0000130AA0081200230A40038200F290130EC
:10020000A5000230A600D2200F29A9011030AA00B3
:1002100081200F290130A9002308AA0081200800AD
:100220002208A5002308A600D2205F207808A50098
:10023000A51B152986145F207808A40086102408C1
:10024000F800672907309F0083131F308305A1281A
:10025000A20122080C20A20AF700A300E420083023
:100260002202031D29290230A200FA30A4003820FE
:10027000A20B3529A20122081920A20AF700A30027
:10028000E42009302202031D3B290230A200FA308B
:10029000A4003820A20B47290C30A300E42005302D
:1002A000A5000130A600D220A20122082720A20A20
:1002B000F700A300E4200C302202031D552964300E
:1002C000A40038201030A2000130A30010297808C3
:1002D000A1000C30A300E4202108A300E420630067
:02400E002A3F47
:00000001FF
;PIC16F628A
;CRC=B9A9  CREATED="15-Tem-19 16:00"
