:1000000008308A00002800000A108A100A110B3EEE
:1000100003188A0A820000340034003400340034AB
:10002000003400345F3400340034003403340034CE
:100030000334003414343E3414343E341434243441
:100040002A347F342A341234433433340834663447
:100050006134363449345534223450340034053454
:1000600003340034003400341C342234413400346E
:100070000034413422341C340034143408343E3407
:1000800008341434083408343E3408340834003456
:100090005034303400340034083408340834083420
:1000A00008340034603460340034003420341034B8
:1000B0000834043402343E345134493445343E3437
:1000C0000034043402347F34003442346134513417
:1000D00049344634223441344934493436341834AE
:1000E000143412347F3410342734453445344534C5
:1000F00039343E34493449344934323401340134DA
:100100007134093407343634493449344934363487
:1001100026344934493449343E3400343634363494
:10012000003400340034563436340034003408349B
:100130001434223441340034143414341434143458
:100140001434003441342234143408340234013479
:100150005134093406343E344134593455345E3414
:100160007E340934093409347E347F3449344934C7
:10017000493436343E3441344134413422347F34BE
:100180004134413441343E347F3449344934493474
:1001900041347F3409340934093401343E34413464
:1001A000413449343A347F340834083408347F34D5
:1001B000003441347F3441340034303440344034EE
:1001C00040343F347F3408341434223441347F3493
:1001D00040344034403440347F3402340C340234F0
:1001E0007F347F340234043408347F343E34413465
:1001F000413441343E347F340934093409340634FF
:100200001E342134213421345E347F3409340934DE
:10021000093476340A148A100A11820726344934C4
:10022000493449343234013401347F3401340134E7
:100230003F344034403440343F341F342034403461
:1002400020341F347F342034103420347F34413440
:1002500022341C34223441340734083470340834D6
:1002600007346134513449344534433400347F34E5
:10027000413400340034023404340834103420345F
:100280000034003441347F34003404340234013407
:100290000234043440344034403440344034003478
:1002A000013402340434003420345434543454348B
:1002B00078347F3444344434443438343834443427
:1002C00044344434443438344434443444347F343F
:1002D00038345434543454341834043404347E34AC
:1002E0000534053408345434543454343C347F34A5
:1002F0000834043404347834003444347D344034D5
:1003000000342034403444343D3400347F341034DD
:10031000283444340034003441347F3440340034D1
:100320007C3404347834043478347C340834043431
:1003300004347834383444344434443438347C34E9
:100340001434143414340834083414341434143485
:100350007C3400347C340834043404344834543459
:10036000543454342034043404343F344434443456
:100370003C344034403420347C341C342034403409
:1003800020341C343C344034303440343C34443425
:1003900028341034283444340C345034503450341D
:1003A0003C344434643454344C34443400340834DD
:1003B000363441344134003400347F340034003466
:1003C00041344134363408340034023401340234C8
:1003D0000434023400308316880006128312061299
:1003E000D8080319F8298316861083128614FC296D
:1003F0008316061083120614FD29831688018312C2
:1004000059088800032A8316861283128616082A42
:100410008316861283128612831606108312061024
:1004200083168610831286100800F701F80146082B
:1004300003104718F707F70CF80CC718F707F70C65
:10044000F80C4719F707F70CF80CC719F707F70C62
:10045000F80C471AF707F70CF80CC71AF707F70C50
:10046000F80C471BF707F70CF80CC71BF707F70C3E
:10047000F80C080020102008831687008312071448
:1004800083168612831286128316061083120610B4
:1004900083168610831286108316061183120611A6
:1004A000D801C030D900EA210130D800C030D900CD
:1004B000EA21D8014030D900EA210130D80040308B
:1004C000D900EA21D801B830D900EA210130D8009A
:1004D000B830D900EA21350B772AD8013F30D9004E
:1004E000EA210130D8003F30D900EA21802AD80122
:1004F0003E30D900EA210130D8003E30D900EA214F
:10050000B601B7013708073C031CC62A831606113B
:1005100083120611D8014030D900EA210130D800F9
:100520004030D900EA213708B838B900D801390875
:10053000D900EA213708B838B9000130D8003908A5
:10054000D900EA218316061183120615B80138086E
:100550003F3C031CC42AFF30C6003608C7001522E2
:100560007808B900D8017808D900EA21FF30C60020
:100570003608C70015227808B9000130D80078087D
:10058000D900EA21B80AA72AB70A822A0800FF3050
:1005900083168800061283120616D7080319D52A77
:1005A0008316861083128614D92A831606108312A6
:1005B0000614DA2A8316861283128616DF2AFF3083
:1005C0008316880083120808D800831686128312C7
:1005D0008612831606108312061083168610831265
:1005E00086105808F8000800551051083F3C0318C1
:1005F000FC2A4030D10255148316061183120611CD
:10060000D1135117003055180130D600D8005108C9
:10061000D900EA21003055180130D600520CF700FD
:10062000F70CF70C1F30F7057708BF39B838D7003B
:100630005608D8005708D900EA21831606118312FC
:100640000615003055180130D600D700C7220030FB
:1006500055180130D600D700C7227808D400530BB4
:10066000412B52080739D6000130F7005608F80030
:1006700003193E2B0310F70DF80B3A2B7708D4041F
:10068000512B52080739D6000130F7005608F80000
:1006900003194E2B0310F70DF80B4A2B7708FF3A7E
:1006A000D405831606118312061100305518013047
:1006B000D600D8005108D900EA218316061183120A
:1006C0000615003055180130D600D8005408D9005E
:1006D000EA2108003808FA003708840083137A18E2
:1006E0008317800803193F2C3808FA003708840064
:1006F00083137A1883170008523C031C9D2B38087B
:10070000FA003708840083137A1883172030000218
:10071000C500C6000530C70015227808C400F800DF
:100720000530F7003F3084008313780804208000F0
:10073000F80A840AF70B952BCB2B3808FA003708F8
:10074000840083137A18831700087E3C031CC62B91
:100750003808FA003708840083137A188317533057
:100760000002C500C6000530C70015227808C40085
:10077000F8000530F7003F308400831378080A2121
:100780008000F80A840AF70BBE2BCB2BBF01C001F7
:10079000C101C201C3013808FA003708840083137D
:1007A0007A18831700080A3A0319DA2B073A031953
:1007B000E32BE52B0730C6003908C70015220130AE
:1007C0007807B6073A2CB5013A2C0530C60039082F
:1007D000C7001522780835077F3C0318F82BB501B0
:1007E0000730C6003908C700152201307807B60760
:1007F000BB013B08043C031C3A2CBC013C08063CF2
:10080000031C362C3F303B07840083130008C400D0
:10081000F7003C08F8000319112C0310F70CF80B33
:100820000D2C771C342CBD0139083D020318342CE3
:10083000BE0139083E020318322C3E083507C400B9
:100840003C08C6003908C7001522780836073D075E
:10085000C5004408D1004508D2003A08D300F4226C
:10086000BE0A192CBD0A142CBC0AFE2BBB0A39087F
:10087000B507F92BB70A0319B80AB50A6A2B08009D
:1008800036308400831300080319532C0230F8001B
:10089000F701F70B492CF80B482C9730F700F70BB2
:1008A0004F2C800B462C08000130CA00CB00D00131
:1008B00041084302D1005108D11F602C5108003C6F
:1008C000FA01C8007A08C90042084402D100510860
:1008D000D11F6C2C5108003CFA01C6007A08C700F1
:1008E000410843020318762CFF30CA004208440234
:1008F00003187C2CFF30CB0047084902031CC82C8E
:10090000031D862C46084802031CC82C0310C60D84
:10091000C70D48084602F7004708FA004908031CBB
:10092000490FFA027708CC007A08CD0048084C023B
:10093000CE004D08CF004908031C490FCF02C9085B
:10094000031DA62C50084802031CC72C4108D100E7
:100950004208D2004508D300F422CD1FB92C460826
:10096000CC0747080318470FCD074A084107C100C5
:10097000C52C4E08CC074F0803184F0FCD074A0867
:100980004107C1004B084207C200D00A9F2C092D25
:100990000310C80DC90D46084802F7004908FA00BF
:1009A0004708031C470FFA027708CC007A08CD00ED
:1009B00046084C02CE004D08CF004708031C470FE5
:1009C000CF02C708031DE82C50084602031C092D5E
:1009D0004108D1004208D2004508D300F422CD1FBF
:1009E000FB2C4808CC0749080318490FCD074B08D2
:1009F0004207C200072D4E08CC074F0803184F0FBF
:100A0000CD074A084107C1004B084207C200D00A7F
:100A1000E12C0800530855068039D700D31F152D47
:100A2000D209D309D20A0319D30AD51F1C2DD40920
:100A3000D509D40A0319D50A1030D600F701FA01F6
:100A4000D30CD20C031C2A2D5408F7070318FA0AFA
:100A50005508FA07FA0CF70CF90CF80CD60B202DF8
:100A6000D71F372DF809F909F80A0319F90A080000
:100A70000130C000C100CB0135083702D00050085A
:100A8000D01F442D5008003CFA01F700F71BFA0371
:100A9000BE007A08BF0036083802D0005008D01FC8
:100AA000532D5008003CFA01F700F71BFA03BC0075
:100AB0007A08BD000310390CBB003F08D3003E0884
:100AC000D200D5013508D4000A257908D10078086C
:100AD000D0003D08D3003C08D200D5013608D40030
:100AE0000A257908FA0078085007F8005108031819
:100AF000510FFA077808003CC700C8017A08031CA8
:100B00007A0FC8023F08D3003E08D200D50137084B
:100B1000D4000A257908D1007808D0003D08D30018
:100B20003C08D200D5013808D4000A257908FA001B
:100B300078085007F80051080318510FFA07780891
:100B4000003CC900CA017A08031C7A0FCA023508A2
:100B500037020318B92D4808CD004708CC004A08D1
:100B6000C8004908C7004D08CA004C08C900FF303A
:100B7000C000360838020318CB2D4808CF004708BC
:100B8000CE004A08C8004908C7004F08CA004E08EE
:100B9000C900FF30C100BD1FD02DBF1FDC2DD22DDD
:100BA000BF1B3A2E3D083F02031C3A2E031DDC2DCD
:100BB0003C083E02031C3A2ED3010230D2003D080D
:100BC000D5003C08D4000A253E087802C300790805
:100BD000C4003F08031C3F0FC4023E084302C50087
:100BE0004408C6003F08031C3F0FC602CB01BF1BD1
:100BF000392EBF08031D002E4B083E02031C392E60
:100C00003B08003CC200390801393B07C21B0B2ED0
:100C100042020318172E42083607D0003508D100CB
:100C20005008D2003A08D300F422C20A032EC41F8F
:100C30002B2ED3010230D2003D08D5003C08D40051
:100C40000A257808C30779080318790FC4074008F4
:100C50003507B500372E4508C30746080318460F69
:100C6000C40740083507B50041083607B600CB0A6F
:100C7000F72D962ED3010230D2003F08D5003E0852
:100C8000D4000A253C087802C3007908C4003D0856
:100C9000031C3D0FC4023C084302C5004408C600C3
:100CA0003D08031C3D0FC602CB01BD1B962EBD089F
:100CB000031D5E2E4B083C02031C962EC41F722E91
:100CC000D3010230D2003F08D5003E08D4000A25E7
:100CD0007808C30779080318790FC4074108360755
:100CE000B6007E2E4508C30746080318460FC40702
:100CF00040083507B50041083607B6003B08003C00
:100D0000C200390801393B07C21B892E4202031871
:100D1000942E42083507D000D1003608D2003A0898
:100D2000D300F422C20A812ECB0A552E8A150A124C
:100D3000BD28BA013708BB003708013CBC00B80821
:100D40000319FF2E3A083502BD003B083607BE00E6
:100D50003A083507BF003B083607C0003D08C10010
:100D60003E08C2003F08C3004008C4003908C5005F
:100D700054243A083502BD003B083602BE003A084A
:100D80003507BF003B083602C0003D08C1003E08E1
:100D9000C2003F08C3004008C4003908C5005424FD
:100DA0003B083502BD003A083607BE003B08350750
:100DB000BF003A083607C0003D08C1003E08C20027
:100DC0003F08C3004008C4003908C50054243B084C
:100DD0003502BD003A083602BE003B083507BF00A9
:100DE0003A083602C0003D08C1003E08C2003F0874
:100DF000C3004008C4003908C5005424672F3508D3
:100E00003A07BD0036083B07BE003D08D1003E084A
:100E1000D2003908D300F42235083B07BD0036085C
:100E20003A07BE003D08D1003E08D2003908D30081
:100E3000F4223A083502BD0036083B07BE003D08E3
:100E4000D1003E08D2003908D300F4223B08350215
:100E5000BD0036083A07BE003D08D1003E08D2006A
:100E60003908D300F42235083B07BD003A083602A2
:100E7000BE003D08D1003E08D2003908D300F4225C
:100E800035083A07BD003B083602BE003D08D100D8
:100E90003E08D2003908D300F4223A083502BD00DA
:100EA0003B083602BE003D08D1003E08D20039089A
:100EB000D300F4223B083502BD003A083602BE00DA
:100EC0003D08D1003E08D2003908D300F422BC1FEF
:100ED000752F3A08BA0ABD000230C6003D08C700A7
:100EE00015227808033EBC07842F3A08BA0ABD00D1
:100EF0003B08BB033D02BD000230C6003D08C700F1
:100F000015227808053EBC073A08803AF7003B08EE
:100F1000803A770203199F2E031C9F2E8A150A120E
:100F2000E228B9080319C42F3708350203189D2F8A
:100F30003508BC003708BD00A12F3708BC003508B4
:100F4000BD00380836020318AA2F3608BE0038083C
:100F5000BF00AE2F3808BE003608BF003C083D0277
:100F6000031CC32F3E08BB003B083F02031CC12FDC
:100F70003C08D1003B08D2003A08D300F422BB0A57
:100F8000B42FBC0AAE2FF02F3508C1003608C200BE
:100F90003708C3003608C4003A08C5005424350891
:100FA000C1003808C2003708C3003808C4003A0836
:100FB000C50054243508C1003608C2003508C300F6
:100FC0003808C4003A08C50054243708C100360860
:100FD000C2003708C3003808C4003A08C5005424CA
:060FE0008A150A120D291A
:10100000FF30A00083161F149F141F159F11073077
:101010009C0083131F3083054E308312A10055308E
:10102000A2005230A3005530A4004C30A500A60009
:101030004130A7004830A800A9015330AA00413030
:10104000AB004830AC004930AD004E30AE00AF01CF
:101050000130B5008A113A228A150130B5008A1193
:101060003A228A151930B5000530B600B801213092
:10107000B7000230B9000130BA008A116A238A151C
:101080001930B5001E30B600B8012A30B700023062
:10109000B9000130BA008A116A238A150830B500F8
:1010A000FA30B6008A1140248A15B50B5028013059
:1010B000B5008A113A228A150530B100B2006430B9
:1010C000B3000530B400B0013008053C031C822891
:1010D0003108C1003208C2003308C3003408C4001C
:1010E0000130C5008A1154248A150A30B20732082B
:1010F000B4000A30B3026430B6008A1140248A1565
:10110000B00A64280130B5008A113A228A150A30E3
:10111000B200B100B0013008773C031CA2283108AE
:10112000D1003208D2000130D3008A11F4228A158E
:101130003108B10AB2003230B6008A1140248A1553
:10114000B00A8B280130B5008A113A228A153C304A
:10115000B4000530B100B0013008073C031CCD28B5
:101160003108B500B6013108B7003408B8000A30BC
:10117000B9000130BA008A11382D8A150230B50045
:10118000FA30B6008A1140248A15B50BC0280F30FA
:10119000B1070530B402B00AAC280130B5008A119D
:1011A0003A228A15B00130081E3C031CEF283C305F
:1011B000B5001E30B6003008B700B8010130B900E4
:1011C0008A11992E8A150230B500FA30B6008A11BC
:1011D00040248A15B50BE5280530B007D328013027
:1011E000B5008A113A228A150530B100B200783074
:1011F000B3003F30B400B00130080B3C031C202981
:101200003108B5003208B6003108B7003408B8001C
:10121000B9010130BA008A11912F8A150530B10742
:101220003108B2000530B302B4020230B500FA3022
:10123000B6008A1140248A15B50B1729B00AFC287C
:041240002D286300F2
:02400E00323F3F
:00000001FF
;PIC16F877A
;CRC=E9EC  CREATED="22-Tem-19 15:40"
